S018000046696E616C50726F6A6563745F50574D2E73726563F8
S11300000C9485000C94A2000C94A2000C94A20001
S11300100C94A2000C94A2000C94A2000C94A200D4
S11300200C94A2000C94A2000C94A2000C94A200C4
S11300300C94A2000C94A2000C94A2000C94A200B4
S11300400C94A2000C94A2000C94A2000C94A200A4
S11300500C94A2006C03EF03EF03EF03EF034B03D5
S1130060EF03EF03EF03EF03EF03EF03EF03770374
S11300706103EF0382038D039803A303AE03B90363
S1130080C403CF03DA03E503EF03EF03EF035603DF
S1130090EF03EF03EF039002EF03DD02F302B1027B
S11300A09B02EF0314034003EF030903EF032A0346
S11300B0D202EF03EF03BC02A6023503FE02C7021D
S11300C0EF03EF03EF03E8021F03EF03EF03EF0374
S11300D0EF03EF03EF039002EF03DD02F302B1023B
S11300E09B02EF0314034003EF030903EF032A0306
S11300F0D202EF03EF03BC02A6023503FE02C702DD
S1130100EF03EF03EF03E8021F0311241FBECFE543
S1130110D8E0DEBFCDBF10E0A0E6B0E0E2E4F9E154
S113012002C005900D92AA3AB107D9F720E0AAEAD5
S1130130B0E001C01D92AF3AB207E1F70E94E905B1
S11301400C949F0C0C9400008130A9F028F08230AC
S113015009F1833071F13CC0613021F0E0F162308B
S113016039F003C08BE390E0089580E090E00895B7
S113017089E390E00895613021F080F1623039F034
S113018003C088E390E0089580E090E0089586E35A
S113019090E00895613021F020F1623039F003C01D
S11301A085E390E0089580E090E0089583E390E093
S11301B00895613021F0C0F0623039F003C082E369
S11301C090E0089580E090E0089580E390E0089541
S11301D080E090E008958AE390E0089587E390E05A
S11301E0089584E390E0089581E390E00895CF9327
S11301F0DF93D62FC42F60E00E94A400CC2319F013
S1130200C13071F018C0FC01408121E030E002C02F
S1130210220F331FDA95E2F72095242320830BC0A5
S1130220FC01408121E030E002C0220F331FDA9547
S1130230E2F7242B2083DF91CF910895CF93DF93AE
S1130240D62FC42F61E00E94A400CC2319F0C13042
S113025071F018C0FC01408121E030E002C0220F9F
S1130260331FDA95E2F72095242320830BC0FC0189
S1130270408121E030E002C0220F331FDA95E2F71B
S1130280242B2083DF91CF910895CF93C62F60E074
S11302900E94A400CC2319F0C13021F006C0FC0157
S11302A0108203C02FEFFC012083CF910895CF93D8
S11302B0C62F61E00E94A400FC01C083CF91089581
S11302C0813089F028F08230C9F0833011F108952B
S11302D040E064E081E00E941E0140E065E081E0CE
S11302E00E941E01089541E064E081E00E941E0125
S11302F040E065E081E00E941E01089540E064E072
S113030081E00E941E0141E065E081E00E941E013F
S1130310089541E064E081E00E941E0141E065E04F
S113032081E00E941E010895CF93C82F40E062E04F
S113033081E00E941E0140E061E081E00E941E0114
S11303406C2F80E00E94570141E060E081E00E9450
S11303501E018AE18A95F1F700C040E060E081E087
S11303600E941E01CF91089541E060E081E00E9467
S1130370F70041E062E081E00E94F70041E061E0C3
S113038081E00E94F70041E066E081E00E94F7000E
S113039041E064E081E00E94F70041E065E081E033
S11303A00E94F70061E080E00E94450141E066E0C0
S11303B081E00E941E0183E00E9460018EE30E949E
S11303C0940188EB0E9494011092AC0080E40E9496
S11303D094011092AB0080EC0E9494018FE30E9480
S11303E0940181E00E9460011092AA000895CF93C5
S11303F0C82F41E062E081E00E941E0140E061E01C
S113040081E00E941E016C2F80E00E94570141E0B0
S113041060E081E00E941E018AE18A95F1F700C044
S113042040E060E081E00E941E01CF91089540E029
S113043066E081E00E941E0185E38A95F1F70000E1
S113044041E066E081E00E941E0108959F92AF9210
S1130450BF92CF92DF92EF92FF920F931F93CF93AD
S1130460DF93922EA32EB42EC52ED62EE72EF82E71
S1130470192FC0E0D0E08091AC0088540E94940110
S11304808091AB00805C0E949401292D3A2D4B2D64
S11304905C2D6D2D7E2D8F2D912F0C2F0E94520CD3
S11304A0822F0E94F7018091AB008F5F8093AB0095
S11304B0803448F08091AA00811105C082E00E9436
S11304C060011092AB002896C832D105A1F6DF91E5
S11304D0CF911F910F91FF90EF90DF90CF90BF903D
S11304E0AF909F900895E82F81E09091AA00911118
S11304F080E0811109C081E09091AB00993308F04C
S113050080E0882309F488C18E2F90E0FC01B09725
S1130510EB35F10508F063C1E65DFF4F0C943F0C29
S11305202CE732E141E152E16CE770E080E090E0D9
S11305300E94260254C12FE739E049E059E061E006
S113054070E080E090E00E94260249C12FE739E084
S113055049E159E26FE470E080E090E00E942602F5
S11305603EC12FE739E449E459E461E470E080E0F6
S113057090E00E94260233C12EE131E241E35EE3C2
S113058060E470E080E090E00E94260228C12FE33E
S113059030E440E450E46FE370E080E090E00E94D7
S11305A026021DC12FE732E04CE150E26FE770E014
S11305B080E090E00E94260212C12EE331E441E47F
S11305C051E461E470E080E090E00E94260207C1FB
S11305D023E03CE040E75CE063E070E080E090E032
S11305E00E942602FCC02FE731E441E45EE360E0B0
S11305F070E080E090E00E942602F1C021E031E04A
S11306004FE751E061E070E080E090E00E94260254
S1130610E6C02FE738E044E152E261E470E080E0B4
S113062090E00E942602DBC02FE738E048E058E063
S11306306FE770E080E090E00E942602D0C021E6DF
S113064031E549E455E463E470E080E090E00E9421
S11306502602C5C02FE732E04CE052E06FE770E0BD
S113066080E090E00E942602BAC02FE439E449E415
S113067059E469EF70E080E090E00E942602AFC088
S113068021E431E44FE751E461E470E080E090E07C
S11306900E942602A4C023EC33E748E15EEC63EC3D
S11306A070E080E090E00E94260299C024E234E2E7
S11306B044E254E264E270E080E090E00E942602AA
S11306C08EC020E030E740E750E760E070E080E073
S11306D090E00E94260283C020E030E040E050E039
S11306E060E070E080E090E00E94260278C028E19B
S11306F038E148E158E168E170E080E090E00E9470
S113070026026DC02EE331E549E455E46EE370E062
S113071080E090E00E94260262C024E432E44FE7C5
S113072050E460E470E080E090E00E94260257C04C
S113073026E431E641E55EE460E470E080E090E0C8
S11307400E9426024CC021E439E449E459E466E3FA
S113075070E080E090E00E94260241C028E134E18C
S113076042E15FE760E170E080E090E00E942602F1
S113077036C02FE439E449E451E561E270E080E0F9
S113078090E00E9426022BC02CE73AE449E459E4A5
S113079061E370E080E090E00E94260220C021E046
S11307A039E449E259E16FE070E080E090E00E94B2
S11307B0260215C027E739E449E459E467E770E005
S11307C080E090E00E9426020AC02FE439E449E464
S11307D059E46FE770E080E090E00E942602809187
S11307E0AC0088540E9494018091AB00805C0E940C
S11307F0940180E00E94F7018091AB008F5F8093A9
S1130800AB00803448F08091AA00811105C082E0D9
S11308100E9460011092AB000895CF93DF93EC0126
S11308208881882331F021960E9473028991811175
S1130830FBCFDF91CF9108958F929F92AF92BF9299
S1130840CF92DF92EF92FF920F931F93CF93DF9398
S113085000D000D01F92CDB7DEB76B017C01992385
S11308605CF48DE20E947302F094E094D094C094FE
S1130870C11CD11CE11CF11C1A821982FE013396A1
S113088083E0DF011D928A95E9F78E010F5F1F4F08
S11308900F2EFAE08F2E912CA12CB12CF02DC70134
S11308A0B601A50194010E94200C605DF8016193DA
S11308B08F01C22ED32EE42EF52E1C141D041E040B
S11308C01F046CF3CE0101967C01D8018E918D0139
S11308D00E947302E016F106C1F70F900F900F907B
S11308E00F900F90DF91CF911F910F91FF90EF9098
S11308F0DF90CF90BF90AF909F908F9008958F928C
S11309009F92AF92BF92CF92DF92EF92FF92CF93DA
S1130910DF934B015C010E94E60A6B01E12CF12C90
S1130920C701B6010E941C048EE20E947302C70133
S1130930B6010E94150B9B01AC01C501B4010E94D4
S1130940070AD3E020E030E040E251E40E94A30B28
S11309506B017C010E94E60AC62F80E38C0F0E9483
S113096073026C2F70E080E090E00E94170B9B01F3
S1130970AC01C701B6010E94070AD15019F7DF91F3
S1130980CF91FF90EF90DF90CF90BF90AF909F906A
S11309908F900895CF93883078F4C82F81E00E9417
S11309A06001C093AC0088EB8C0F0E9494011092FC
S11309B0AB0080E40E949401CF910895CF93DF931C
S11309C0D0E08D2F0E94CA0483E00E946001C0E43D
S11309D08C2F0E94940180E00E94F701CF5FC03801
S11309E0B9F7DF5FD83069F70E94170281E00E94EF
S11309F060011092AA0080E00E94CA04DF91CF91A6
S1130A0008959EB59F7B9EBD811107C08EB590E46D
S1130A10699FB0011124682B6EBD0895811108C02F
S1130A2008B605FE07C088B7806288BF81E00895D4
S1130A3080E0089580E00895FC018E981FBC1EBCE0
S1130A409EB58181892B8EBD8EB5928140E4949FA1
S1130A5090011124282B2EBD29B7938130E2939F56
S1130A60C0011124822B89BF1DBC1CBC17BC16BC41
S1130A700895FC012081211102C00E941C050895E3
S1130A804F925F926F927F928F929F92AF92BF929A
S1130A90CF92DF92EF92FF920F931F93CF93DF9346
S1130AA0EC018B0188B7806288BF61E080E00E941E
S1130AB0010580E00E940E058823D9F360E080E000
S1130AC00E9401051DBC1CBC88B7806288BFC12C74
S1130AD0D12C760109C008B602FE06C088B784602E
S1130AE088BF8FEFE81AF80A80E00E940E05882379
S1130AF091F386B597B5C80ED91EE11CF11C61E0CF
S1130B0080E00E9401051DBC1CBC88B7806288BFC0
S1130B1006C008B602FE03C088B7846088BF80E0C0
S1130B200E940E058823A9F386B497B4A12CB12C96
S1130B302E01612C712CA7019601C301B2010E9400
S1130B40100C0E94150B20E030E04AE754E40E94A8
S1130B50A30B20E034E244E75BE40E94740AF8014A
S1130B606083718382839383A7019601280D391DC5
S1130B704A1D5B1DC301B2010E94100C0E94150B9B
S1130B8020E030E04AE754E40E94A30B20E034E282
S1130B9044E75BE40E94740AF801648375838683E6
S1130BA09783DF91CF911F910F91FF90EF90DF908A
S1130BB0CF90BF90AF909F908F907F906F905F90F9
S1130BC04F900895811104C0CB01BA010E944005E1
S1130BD00895CF93DF93CDB7DEB761970FB6F8943E
S1130BE0DEBF0FBECDBF0E94FC07FE01319681E13E
S1130BF0DF011D928A95E9F7CE0101960E9409084A
S1130C0020E030E040EA50E46A857B858C859D8550
S1130C100E94740AAB01BC01CE0101960E947A08BD
S1130C20BFEF21EE84E0B15020408040E1F700C0E6
S1130C300000E2CFFC01BB9A13BE93B78181880FF9
S1130C40880F880F9064982B93BF93B78381829504
S1130C50807F9062982B93BF8281843069F018F46E
S1130C60833030F011C09AEF980F943048F00CC0E4
S1130C7093B7892B83BF08C083B7836083BF04C045
S1130C8093B78250892B83BF1CBE8381882319F0BC
S1130C908130A1F030C060858FEF689FB0011124CE
S1130CA080E090E00E94150B20E030E048EC52E434
S1130CB00E94740A0E94E60A6CBF1DC0608570E041
S1130CC080E090E00E94170B9B01AC0160E070E0B3
S1130CD088EC92E40E94070A20E030E04FE753E4F6
S1130CE00E94A30B20E030E048EC52E40E94740A16
S1130CF00E94E60A6CBF12BE0895CF92DF92EF9273
S1130D00FF92CF93DF93EC018881813019F0823018
S1130D1019F003C08D9A01C08C9A1FBC1EBC8FB5FC
S1130D2082608FBD8EB59981990F990F990F80615B
S1130D30892B8EBD8881813019F0823051F010C02A
S1130D408FB59B819295990F990F907C8068892B20
S1130D508FBD8FB59B819295907F8062892B8FBDCB
S1130D608A81843069F018F4833030F011C09AEF2E
S1130D70980F943048F00CC09EB5892B8EBD08C0E6
S1130D808EB583608EBD04C09EB58250892B8EBD06
S1130D90AE81BF8120E034E244EF50E00E94450C74
S1130DA00E94150B6B017C016C817D8180E090E0D9
S1130DB00E94150B20E030E04AE754E40E94A30BA4
S1130DC09B01AC01C701B6010E94740A20E030E027
S1130DD040E85FE30E94070A0E94E60A7093AE00AF
S1130DE06093AD0077BD66BD8881813021F082308B
S1130DF009F449C08FC08B81882319F08130D1F068
S1130E0089C028858091AD009091AE00289FB001E3
S1130E10299F700D112480E090E00E94150B20E0C2
S1130E2030E048EC52E40E94740A0E94E60A7BBD5A
S1130E306ABD70C0688570E080E090E00E94170B86
S1130E409B01AC0160E070E088EC92E40E94070A28
S1130E506B017C016091AD007091AE0080E090E088
S1130E600E94150B9B01AC01C701B6010E94A30BA4
S1130E7020E030E048EC52E40E94740A0E94E60A42
S1130E807BBD6ABD47C08B81882319F08130D1F0C6
S1130E9041C028858091AD009091AE00289FB0019B
S1130EA0299F700D112480E090E00E94150B20E032
S1130EB030E048EC52E40E94740A0E94E60A79BDCC
S1130EC068BD28C0688570E080E090E00E94170B40
S1130ED09B01AC0160E070E088EC92E40E94070A98
S1130EE06B017C016091AD007091AE0080E090E0F8
S1130EF00E94150B9B01AC01C701B6010E94A30B14
S1130F0020E030E048EC52E40E94740A0E94E60AB1
S1130F1079BD68BD1DBC1CBCDF91CF91FF90EF90E3
S1130F20DF90CF900895FC018F9A15BC95B581810F
S1130F30880F880F880F9064982B95BD93B7838191
S1130F408295807F9062982B93BF928188EF890F5E
S1130F50823018F085B5892B85BD13BC8381882325
S1130F6019F08130A1F030C060858FEF689FB00127
S1130F70112480E090E00E94150B20E030E048EC62
S1130F8052E40E94740A0E94E60A63BD1DC0608593
S1130F9070E080E090E00E94170B9B01AC0160E0E0
S1130FA070E088EC92E40E94070A20E030E04FE70A
S1130FB053E40E94A30B20E030E048EC52E40E948A
S1130FC0740A0E94E60A63BD14BC0895FC01908172
S1130FD0933018F4913020F007C0933049F008950D
S1130FE0CF010E941A060895CF010E947D0608953C
S1130FF0CF010E94930708950E94B4010E94DE0469
S113100080EA90E00E94E60787E990E00E943905B3
S113101008958F929F92AF92BF92CF92DF92EF92F8
S1131020FF920F931F93CF93DF93CDB7DEB728972B
S11310300FB6F894DEBF0FBECDBF8C0119821A82A1
S11310401B821C821D821E821F821886AE014F5F86
S11310505F4F68E070E080E00E94E205CD80DE80B2
S1131060EF80F884F801C186D286E386F48689800D
S11310709A80AB80BC8081829282A382B482A501D3
S11310809401C701B6010E94070AF80165837683BB
S113109087839087A701960160E070E080E89FE372
S11310A00E94740AF801658776878787908B20E011
S11310B030E048EC52E4C501B4010E94A30BA7013F
S11310C096010E94740A0E94E60AF8016083289639
S11310D00FB6F894DEBF0FBECDBFDF91CF911F9145
S11310E00F91FF90EF90DF90CF90BF90AF909F90C3
S11310F08F9008958F929F92AF92BF92EF92FF923A
S11311000F931F93CF93DF93CDB7DEB7EC970FB652
S1131110F894DEBF0FBECDBF7C014A015B010E9483
S1131120DE0480E00E94CA048CE0E0E6F0E0DE0128
S1131130119601900D928A95E1F7FE013D9683E0A8
S1131140DF011D928A95E9F7CE0101960E940D04F4
S1131150F70165857685878590890E947F0485E0FF
S1131160EBE9F0E0DE01509601900D928A95E1F7EB
S1131170CE0140960E940D0481E00E94CA0487E0DB
S1131180EFE6F0E0DE01559601900D928A95E1F7C5
S1131190FE017C9688E0DF011D928A95E9F7CE0175
S11311A045960E940D04F701608170E080E090E0B4
S11311B00E941C0480917E0090917F009DA38CA3CB
S11311C080918000909181009FA38EA318A6CE01E8
S11311D084960E940D0486E00E94CA0410E020E474
S11311E030E44EE752E062E070E080E090E00E947C
S11311F026021B5FA5019401D70111966D917D9183
S11312008D919C9114970E94740A0E94E60A6623A9
S1131210D1F000E022E032E042E052E062E070E02F
S113122080E090E00E9426021B5F0F5FA5019401FD
S1131230F70161817281838194810E94740A0E9402
S1131240E60A061738F322E032E04EE750E460E4A1
S113125070E080E090E00E9426021B5FA5019401EB
S1131260D70115966D917D918D919C9118970E944F
S1131270740A0E94E60A6623D1F000E020E430E418
S113128040E450E460E470E080E090E00E942602D4
S11312901B5F0F5FA5019401F7016581768187814A
S11312A090850E94740A0E94E60A061738F31837DC
S11312B008F495CF85E00E94CA0420E03EE348E0AC
S11312C05CE16AE270E080E090E00E942602A50101
S11312D09401D70111966D917D918D919C911497F4
S11312E00E94740A0E94E60A6623C9F010E028E00E
S11312F038E048E058E068E070E080E090E00E9468
S113130026021F5FA5019401F70161817281838127
S113131094810E94740A0E94E60A161740F328E09A
S113132038E048E058E068E070E080E090E00E9437
S11313302602A5019401D70115966D917D918D9199
S11313409C9118970E94740A0E94E60A6623C9F0C9
S113135010E028E038E048E058E068E070E080E021
S113136090E00E9426021F5FA5019401F7016581A8
S11313707681878190850E94740A0E94E60A161776
S113138040F32AE23CE148E05EE360E070E080E0A4
S113139090E00E94260284E00E94CA0488E0E3E808
S11313A0F0E0DE01999601900D928A95E1F7FE0135
S11313B0F19687E0DF011D928A95E9F7CE018996BF
S11313C00E940D04F70161857285838594850E94CE
S11313D07F0485E0E2E9F0E0DE01D89601900D9209
S11313E08A95E1F7CE01C8960E940D04EC960FB6DB
S11313F0F894DEBF0FBECDBFDF91CF911F910F9147
S1131400FF90EF90BF90AF909F908F9008955058A9
S1131410BB27AA270E941F0A0C94690B0E945B0B2E
S113142038F00E94620B20F039F49F3F19F426F43F
S11314300C94580B0EF4E095E7FB0C94520BE92F37
S11314400E947A0B58F3BA1762077307840795074B
S113145020F079F4A6F50C949C0B0EF4E0950B2E79
S1131460BA2FA02D0B01B90190010C01CA01A001F2
S11314701124FF27591B99F0593F50F4503E68F14D
S11314801A16F040A22F232F342F4427585FF3CF8E
S1131490469537952795A795F0405395C9F77EF45F
S11314A01F16BA0B620B730B840BBAF09150A1F0A8
S11314B0FF0FBB1F661F771F881FC2F70EC0BA0F2E
S11314C0621F731F841F48F4879577956795B795B6
S11314D0F7959E3F08F0B0CF9395880F08F09927B1
S11314E0EE0F9795879508950E94880A0C94690BCE
S11314F00E94620B58F00E945B0B40F029F45F3F9E
S113150029F00C94520B51110C949D0B0C94580B14
S11315100E947A0B68F39923B1F3552391F3951B39
S1131520550BBB27AA2762177307840738F09F5F00
S11315305F4F220F331F441FAA1FA9F335D00E2E6D
S11315403AF0E0E832D091505040E695001CCAF7DA
S11315502BD0FE2F29D0660F771F881FBB1F26179D
S113156037074807AB07B0E809F0BB0B802DBF0174
S1131570FF2793585F4F3AF09E3F510578F00C9443
S1131580520B0C949D0B5F3FE4F3983ED4F3869585
S113159077956795B795F7959F5FC9F7880F911D64
S11315A09695879597F90895E1E0660F771F881F50
S11315B0BB1F621773078407BA0720F0621B730B03
S11315C0840BBA0BEE1F88F7E09508950E94820BF6
S11315D088F09F5798F0B92F9927B751B0F0E1F0F0
S11315E0660F771F881F991F1AF0BA95C9F714C0A0
S11315F0B13091F00E949C0BB1E008950C949C0BC7
S1131600672F782F8827B85F39F0B93FCCF38695D8
S113161077956795B395D9F73EF490958095709535
S113162061957F4F8F4F9F4F0895E89409C097FBB2
S11316303EF490958095709561957F4F8F4F9F4FA5
S11316409923A9F0F92F96E9BB279395F6958795E9
S113165077956795B795F111F8CFFAF4BB0F11F4AC
S113166060FF1BC06F5F7F4F8F4F9F4F16C0882353
S113167011F096E911C0772321F09EE8872F762F89
S113168005C0662371F096E8862F70E060E02AF0CA
S11316909A95660F771F881FDAF7880F96958795B6
S11316A097F9089597F99F6780E870E060E00895DE
S11316B09FEF80EC089500240A9416161706180666
S11316C00906089500240A94121613061406050642
S11316D00895092E0394000C11F4882352F0BB0FD3
S11316E040F4BF2B11F460FF04C06F5F7F4F8F4F36
S11316F09F4F089557FD9058440F551F59F05F3F71
S113170071F04795880F97FB991F61F09F3F79F01F
S113171087950895121613061406551FF2CF4695A1
S1131720F1DF08C0161617061806991FF1CF869523
S11317307105610508940895E894BB276627772707
S1131740CB0197F908950E94B60B0C94690B0E9483
S11317505B0B38F00E94620B20F0952311F00C947F
S1131760520B0C94580B11240C949D0B0E947A0B71
S113177070F3959FC1F3950F50E0551F629FF001E0
S1131780729FBB27F00DB11D639FAA27F00DB11DF9
S1131790AA1F649F6627B00DA11D661F829F222782
S11317A0B00DA11D621F739FB00DA11D621F839F09
S11317B0A00D611D221F749F3327A00D611D231FDF
S11317C0849F600D211D822F762F6A2F11249F572D
S11317D050409AF0F1F088234AF0EE0FFF1FBB1F30
S11317E0661F771F881F91505040A9F79E3F5105EF
S11317F080F00C94520B0C949D0B5F3FE4F3983EE5
S1131800D4F3869577956795B795F795E7959F5F98
S1131810C1F7FE2B880F911D9695879597F908952A
S1131820DB018F939F930E94450CBF91AF91A29FC0
S1131830800D911DA39F900DB29F900D11240895CA
S1131840052E97FB1EF400940E94370C57FD07D019
S11318500E946E0C07FC03D04EF40C94370C509588
S11318604095309521953F4F4F4F5F4F0895909588
S11318708095709561957F4F8F4F9F4F0895EE0F20
S1131880FF1F0590F491E02D09940E94900CA59FF0
S1131890900DB49F900DA49F800D911D1124089567
S11318A097FB10F8169400080F93083098F008502E
S11318B0232F342F452F562F672F782F892F902DC4
S11318C0F4CF0594979587957795679557954795A0
S11318D0379527950A95AAF70F910895A1E21A2E34
S11318E0AA1BBB1BFD010DC0AA1FBB1FEE1FFF1FC0
S11318F0A217B307E407F50720F0A21BB30BE40B10
S1131900F50B661F771F881F991F1A9469F7609556
S11319107095809590959B01AC01BD01CF01089510
S1131920A29FB001B39FC001A39F700D811D11241C
S1131930911DB29F700D811D1124911D0895F8947D
S1051940FFCFD3
S11319424672657175656E63793D0000000000445E
S11319527574793D0000000000000000000020259D
S11319620000002054696D653D0000000000000085
S11319720000206D73000000020000206B487A0012
S10D198200010201000104005A00F4
S9030000FC
